{
  "contractName": "Register05",
  "abi": [
    {
      "inputs": [],
      "stateMutability": "nonpayable",
      "type": "constructor"
    },
    {
      "anonymous": false,
      "inputs": [
        {
          "indexed": false,
          "internalType": "string",
          "name": "oldInfo",
          "type": "string"
        },
        {
          "indexed": false,
          "internalType": "string",
          "name": "newInfo",
          "type": "string"
        }
      ],
      "name": "InfoChange",
      "type": "event"
    },
    {
      "inputs": [
        {
          "internalType": "uint256",
          "name": "",
          "type": "uint256"
        }
      ],
      "name": "info",
      "outputs": [
        {
          "internalType": "string",
          "name": "",
          "type": "string"
        }
      ],
      "stateMutability": "view",
      "type": "function",
      "constant": true
    },
    {
      "inputs": [],
      "name": "owner",
      "outputs": [
        {
          "internalType": "address",
          "name": "",
          "type": "address"
        }
      ],
      "stateMutability": "view",
      "type": "function",
      "constant": true
    },
    {
      "inputs": [
        {
          "internalType": "address",
          "name": "",
          "type": "address"
        }
      ],
      "name": "whiteList",
      "outputs": [
        {
          "internalType": "bool",
          "name": "",
          "type": "bool"
        }
      ],
      "stateMutability": "view",
      "type": "function",
      "constant": true
    },
    {
      "inputs": [
        {
          "internalType": "string",
          "name": "_info",
          "type": "string"
        }
      ],
      "name": "addInfo",
      "outputs": [
        {
          "internalType": "uint256",
          "name": "index",
          "type": "uint256"
        }
      ],
      "stateMutability": "nonpayable",
      "type": "function"
    },
    {
      "inputs": [
        {
          "internalType": "uint256",
          "name": "index",
          "type": "uint256"
        },
        {
          "internalType": "string",
          "name": "_info",
          "type": "string"
        }
      ],
      "name": "setInfo",
      "outputs": [],
      "stateMutability": "nonpayable",
      "type": "function"
    },
    {
      "inputs": [],
      "name": "listInfo",
      "outputs": [
        {
          "internalType": "string[]",
          "name": "",
          "type": "string[]"
        }
      ],
      "stateMutability": "view",
      "type": "function",
      "constant": true
    },
    {
      "inputs": [
        {
          "internalType": "address",
          "name": "_member",
          "type": "address"
        }
      ],
      "name": "addMember",
      "outputs": [],
      "stateMutability": "nonpayable",
      "type": "function"
    },
    {
      "inputs": [
        {
          "internalType": "address",
          "name": "_member",
          "type": "address"
        }
      ],
      "name": "delMember",
      "outputs": [],
      "stateMutability": "nonpayable",
      "type": "function"
    }
  ],
  "bytecode": "0x608060405234801561001057600080fd5b5033600160006101000a81548173ffffffffffffffffffffffffffffffffffffffff021916908373ffffffffffffffffffffffffffffffffffffffff1602179055506001600260003373ffffffffffffffffffffffffffffffffffffffff1673ffffffffffffffffffffffffffffffffffffffff16815260200190815260200160002060006101000a81548160ff021916908315150217905550611016806100b96000396000f3fe608060405234801561001057600080fd5b50600436106100885760003560e01c80638da5cb5b1161005b5780638da5cb5b14610139578063b682000214610157578063ca6d56dc14610173578063d03d58491461018f57610088565b80630bf803e41461008d5780631f81595d146100bd5780632e340599146100d9578063372c12b114610109575b600080fd5b6100a760048036038101906100a29190610955565b6101ad565b6040516100b491906109b7565b60405180910390f35b6100d760048036038101906100d29190610a30565b610297565b005b6100f360048036038101906100ee9190610a89565b610382565b6040516101009190610b3e565b60405180910390f35b610123600480360381019061011e9190610a30565b61042e565b6040516101309190610b7b565b60405180910390f35b61014161044e565b60405161014e9190610ba5565b60405180910390f35b610171600480360381019061016c9190610bc0565b610474565b005b61018d60048036038101906101889190610a30565b610594565b005b61019761067f565b6040516101a49190610d28565b60405180910390f35b600060011515600260003373ffffffffffffffffffffffffffffffffffffffff1673ffffffffffffffffffffffffffffffffffffffff16815260200190815260200160002060009054906101000a900460ff16151514610242576040517f08c379a000000000000000000000000000000000000000000000000000000000815260040161023990610d96565b60405180910390fd5b60008290806001815401808255809150506001900390600052602060002001600090919091909150908051906020019061027d929190610758565b5060016000805490506102909190610de5565b9050919050565b600160009054906101000a900473ffffffffffffffffffffffffffffffffffffffff1673ffffffffffffffffffffffffffffffffffffffff163373ffffffffffffffffffffffffffffffffffffffff1614610327576040517f08c379a000000000000000000000000000000000000000000000000000000000815260040161031e90610e65565b60405180910390fd5b6000600260008373ffffffffffffffffffffffffffffffffffffffff1673ffffffffffffffffffffffffffffffffffffffff16815260200190815260200160002060006101000a81548160ff02191690831515021790555050565b6000818154811061039257600080fd5b9060005260206000200160009150905080546103ad90610eb4565b80601f01602080910402602001604051908101604052809291908181526020018280546103d990610eb4565b80156104265780601f106103fb57610100808354040283529160200191610426565b820191906000526020600020905b81548152906001019060200180831161040957829003601f168201915b505050505081565b60026020528060005260406000206000915054906101000a900460ff1681565b600160009054906101000a900473ffffffffffffffffffffffffffffffffffffffff1681565b60011515600260003373ffffffffffffffffffffffffffffffffffffffff1673ffffffffffffffffffffffffffffffffffffffff16815260200190815260200160002060009054906101000a900460ff16151514610507576040517f08c379a00000000000000000000000000000000000000000000000000000000081526004016104fe90610d96565b60405180910390fd5b7f305058d54db6daf26994cd687b168a24cdd9a7201462f1659782c4e4299879926000838154811061053c5761053b610ee5565b5b9060005260206000200182604051610555929190610fa9565b60405180910390a1806000838154811061057257610571610ee5565b5b90600052602060002001908051906020019061058f929190610758565b505050565b600160009054906101000a900473ffffffffffffffffffffffffffffffffffffffff1673ffffffffffffffffffffffffffffffffffffffff163373ffffffffffffffffffffffffffffffffffffffff1614610624576040517f08c379a000000000000000000000000000000000000000000000000000000000815260040161061b90610e65565b60405180910390fd5b6001600260008373ffffffffffffffffffffffffffffffffffffffff1673ffffffffffffffffffffffffffffffffffffffff16815260200190815260200160002060006101000a81548160ff02191690831515021790555050565b60606000805480602002602001604051908101604052809291908181526020016000905b8282101561074f5783829060005260206000200180546106c290610eb4565b80601f01602080910402602001604051908101604052809291908181526020018280546106ee90610eb4565b801561073b5780601f106107105761010080835404028352916020019161073b565b820191906000526020600020905b81548152906001019060200180831161071e57829003601f168201915b5050505050815260200190600101906106a3565b50505050905090565b82805461076490610eb4565b90600052602060002090601f01602090048101928261078657600085556107cd565b82601f1061079f57805160ff19168380011785556107cd565b828001600101855582156107cd579182015b828111156107cc5782518255916020019190600101906107b1565b5b5090506107da91906107de565b5090565b5b808211156107f75760008160009055506001016107df565b5090565b6000604051905090565b600080fd5b600080fd5b600080fd5b600080fd5b6000601f19601f8301169050919050565b7f4e487b7100000000000000000000000000000000000000000000000000000000600052604160045260246000fd5b61086282610819565b810181811067ffffffffffffffff821117156108815761088061082a565b5b80604052505050565b60006108946107fb565b90506108a08282610859565b919050565b600067ffffffffffffffff8211156108c0576108bf61082a565b5b6108c982610819565b9050602081019050919050565b82818337600083830152505050565b60006108f86108f3846108a5565b61088a565b90508281526020810184848401111561091457610913610814565b5b61091f8482856108d6565b509392505050565b600082601f83011261093c5761093b61080f565b5b813561094c8482602086016108e5565b91505092915050565b60006020828403121561096b5761096a610805565b5b600082013567ffffffffffffffff8111156109895761098861080a565b5b61099584828501610927565b91505092915050565b6000819050919050565b6109b18161099e565b82525050565b60006020820190506109cc60008301846109a8565b92915050565b600073ffffffffffffffffffffffffffffffffffffffff82169050919050565b60006109fd826109d2565b9050919050565b610a0d816109f2565b8114610a1857600080fd5b50565b600081359050610a2a81610a04565b92915050565b600060208284031215610a4657610a45610805565b5b6000610a5484828501610a1b565b91505092915050565b610a668161099e565b8114610a7157600080fd5b50565b600081359050610a8381610a5d565b92915050565b600060208284031215610a9f57610a9e610805565b5b6000610aad84828501610a74565b91505092915050565b600081519050919050565b600082825260208201905092915050565b60005b83811015610af0578082015181840152602081019050610ad5565b83811115610aff576000848401525b50505050565b6000610b1082610ab6565b610b1a8185610ac1565b9350610b2a818560208601610ad2565b610b3381610819565b840191505092915050565b60006020820190508181036000830152610b588184610b05565b905092915050565b60008115159050919050565b610b7581610b60565b82525050565b6000602082019050610b906000830184610b6c565b92915050565b610b9f816109f2565b82525050565b6000602082019050610bba6000830184610b96565b92915050565b60008060408385031215610bd757610bd6610805565b5b6000610be585828601610a74565b925050602083013567ffffffffffffffff811115610c0657610c0561080a565b5b610c1285828601610927565b9150509250929050565b600081519050919050565b600082825260208201905092915050565b6000819050602082019050919050565b600082825260208201905092915050565b6000610c6482610ab6565b610c6e8185610c48565b9350610c7e818560208601610ad2565b610c8781610819565b840191505092915050565b6000610c9e8383610c59565b905092915050565b6000602082019050919050565b6000610cbe82610c1c565b610cc88185610c27565b935083602082028501610cda85610c38565b8060005b85811015610d165784840389528151610cf78582610c92565b9450610d0283610ca6565b925060208a01995050600181019050610cde565b50829750879550505050505092915050565b60006020820190508181036000830152610d428184610cb3565b905092915050565b7f4f6e6c792077686974656c697374000000000000000000000000000000000000600082015250565b6000610d80600e83610ac1565b9150610d8b82610d4a565b602082019050919050565b60006020820190508181036000830152610daf81610d73565b9050919050565b7f4e487b7100000000000000000000000000000000000000000000000000000000600052601160045260246000fd5b6000610df08261099e565b9150610dfb8361099e565b925082821015610e0e57610e0d610db6565b5b828203905092915050565b7f4f6e6c79206f776e657200000000000000000000000000000000000000000000600082015250565b6000610e4f600a83610ac1565b9150610e5a82610e19565b602082019050919050565b60006020820190508181036000830152610e7e81610e42565b9050919050565b7f4e487b7100000000000000000000000000000000000000000000000000000000600052602260045260246000fd5b60006002820490506001821680610ecc57607f821691505b602082108103610edf57610ede610e85565b5b50919050565b7f4e487b7100000000000000000000000000000000000000000000000000000000600052603260045260246000fd5b60008190508160005260206000209050919050565b60008154610f3681610eb4565b610f408186610ac1565b94506001821660008114610f5b5760018114610f6d57610fa0565b60ff1983168652602086019350610fa0565b610f7685610f14565b60005b83811015610f9857815481890152600182019150602081019050610f79565b808801955050505b50505092915050565b60006040820190508181036000830152610fc38185610f29565b90508181036020830152610fd78184610b05565b9050939250505056fea2646970667358221220277e427481147a6d5c62db50d36c8a14e8b45d29202610e827bb23e84c27703164736f6c634300080d0033",
  "immutableReferences": {},
  "source": "// SPDX-License-Identifier: MIT\r\npragma solidity 0.8.13;\r\n \r\ncontract Register05 { \r\n    string[] public info;\r\n    address public owner;\r\n    mapping (address => bool) public whiteList;\r\n \r\n    constructor() {\r\n        owner = msg.sender;\r\n        whiteList[msg.sender] = true;\r\n    }\r\n \r\n    event InfoChange(string oldInfo, string newInfo);\r\n   \r\n    modifier onlyOwner {\r\n        require(msg.sender == owner,\"Only owner\");\r\n        _;\r\n    }\r\n \r\n    modifier onlyWhitelist {\r\n        require(whiteList[msg.sender] == true, \"Only whitelist\");\r\n        _;\r\n    }\r\n   \r\n    function addInfo(string memory _info) public onlyWhitelist returns (uint index) {\r\n        info.push (_info);\r\n        index = info.length -1;\r\n    }\r\n\r\n    function setInfo(uint index, string memory _info) public onlyWhitelist {\r\n        emit InfoChange (info[index], _info);\r\n        info[index] = _info;\r\n    }\r\n     \r\n    function listInfo() public view returns (string[] memory) {\r\n        return info;\r\n    }\r\n \r\n    function addMember (address _member) public onlyOwner {\r\n        whiteList[_member] = true;\r\n    }\r\n   \r\n    function delMember (address _member) public onlyOwner {\r\n        whiteList[_member] = false;\r\n    }    \r\n}\r\n//End\r\n",
  "sourcePath": "/mnt/c/pr0/truffle-project-1/contracts/Register05.sol",
  "compiler": {
    "name": "solc",
    "version": "0.8.13+commit.abaa5c0e.Emscripten.clang"
  },
  "schemaVersion": "3.4.7",
  "updatedAt": "2022-04-25T03:05:11.834Z",
  "networkType": "ethereum",
  "devdoc": {
    "kind": "dev",
    "methods": {},
    "version": 1
  },
  "userdoc": {
    "kind": "user",
    "methods": {},
    "version": 1
  }
}